:100000000C942A000C9447000C9447000C94470071
:100010000C9447000C9447000C9447000C94470044
:100020000C9447000C9447000C9447000C94470034
:100030000C9447000C9447000C9447000C94470024
:100040000C9447000C9447000C9447000C94470014
:100050000C94470011241FBECFE5D4E0DEBFCDBF16
:1000600010E0A0E6B0E0E2E1FDE002C005900D92F4
:10007000A838B107D9F720E0A8E8B0E001C01D9288
:10008000AF38B207E1F70E94A4020C9487060C94E3
:10009000000084B3806F84BB84B3807F84BB8FEF08
:1000A00085BB08950F931F93CF93DF93A8E6B0E02D
:1000B00040E050E001E010E085B3806F85BB95B370
:1000C0008C911296980102C0220F331F8A95E2F795
:1000D000822F8095892385BBE0E6F0E0C1E0D0E087
:1000E00060E070E003C06F5F7F4F219683B3208193
:1000F000329690E0022E02C0959587950A94E2F719
:1001000080FD50C0C80102C0880F991F2A95E2F7F0
:100110009C0183B390E082239323892BD1F3413058
:100120005105C9F024F44115510541F03BC042305E
:100130005105F1F04330510541F134C061157105AD
:10014000E9F161307105E1F162307105D9F1633097
:10015000710541F539C061157105C1F16130710555
:10016000B9F162307105B1F163307105D9F434C071
:100170006115710599F16130710591F16230710578
:1001800089F16330710571F42FC06115710571F14A
:100190006130710569F16230710561F1633071059B
:1001A00069F52AC0C430D1050CF49DCF4F5F5F4F75
:1001B0004430510509F080CF81E425C087E323C096
:1001C00084E321C081E31FC083E61DC088E31BC018
:1001D00085E319C082E317C080E315C089E313C02B
:1001E00086E311C083E30FC08DE30DC08FE20BC027
:1001F0008AE209C08DE207C08BE205C0C430D10598
:100200000CF471CF81E4DF91CF911F910F9108958C
:100210008A9A929A000000008BE49DE10197F1F721
:1002200000C00000929808951ABA81B3876081BB1C
:100230009098919A0E9408018FEF8ABB9198089537
:10024000CF93C82F0E94140190989198CBBB0E9425
:100250000801CF91089581E00E942001089583EC68
:1002600099E00197F1F700C0000081B3876081BB7E
:100270008FEF8ABB82B3887F82BB87E893E10197C7
:10028000F1F700C000000E942B0188E30E942001CA
:1002900086E00E94200180E80E9420018CE00E94FC
:1002A00020010895CF93C82F0E941401909ACBBBD0
:1002B0000E940801CF910895811105C080E8860F42
:1002C0000E9420010895813021F480EC860F0E9465
:1002D000200108950F931F93CF93DF938C01C0E00B
:1002E000D0E014C00E9452012196C031D10521F402
:1002F00080EC0E9420010AC0C032D10539F40E946E
:100300002B0180E80E942001C0E0D0E0F80181913B
:100310008F018111E7CFDF91CF911F910F91089548
:100320000F931F93CF93DF93CDB7DEB727970FB609
:10033000F894DEBF0FBECDBF9F938F9382E790E00E
:100340009F938F938E010F5F1F4F1F930F930E94F8
:100350009D03C8010E946A010F900F900F900F90AB
:100360000F900F9027960FB6F894DEBF0FBECDBF4B
:10037000DF91CF911F910F910895CF93DF93EC01FF
:1003800066E080E00E945C01CE010E949001DF9156
:10039000CF910895CF93DF93EC0163E080E00E945A
:1003A0005C01CE010E949001DF91CF910895CF931F
:1003B000DF93EC0160E080E00E945C01CE010E94CE
:1003C0009001DF91CF910895CF93DF93EC0169E025
:1003D00080E00E945C01CE010E946A01DF91CF9112
:1003E0000895E0917000F0917100848195810E94E0
:1003F000D70162E080E00E945C0180E890E00E940A
:100400006A01E0917000F0917100828193810E94F5
:10041000CA0165E080E00E945C0180E890E00E94F3
:100420006A01E0917000F0917100808191810E94D9
:10043000BD01E0917000F0917100868190E00E9412
:10044000E4010895E0917000F09171008081918144
:10045000CC9769F481E090E091838083E091700013
:10046000F091710082819381019693838283E09160
:100470007000F091710082819381CC9749F481E002
:1004800090E0938382838481958101969583848310
:10049000848195810D97A4F081E090E09583848319
:1004A000868190E020E08238920721F485E890E090
:1004B000868306C08558904019F482E890E08683D0
:1004C0000E94F1010895E0917000F0917100808127
:1004D0009181892B69F48BE390E091838083E09193
:1004E0007000F091710082819381019793838283E0
:1004F000E0917000F091710082819381892B49F421
:100500008BE390E093838283848195810197958327
:10051000848384819581892BA1F48CE090E095837C
:100520008483868190E020E08238920721F485E878
:1005300090E0868306C08558904019F482E890E0E8
:1005400086830E94F10108950E942F010E944900B4
:10055000E0917000F09171008CE090E095838483CD
:100560008BE390E09383828382E390E091838083A6
:1005700085E890E0D82FE0917000F09171008683BB
:1005800001E010E00F2EF2E8EF2EF0E0FF2EF02D4C
:100590000E945200813409F0CCC00E945200C82F42
:1005A000E0917000F09171008081918101969183BA
:1005B00080830E94F101E0917000F09171008081D0
:1005C0009181CB9769F411830083E0917000F091E1
:1005D0007100828193810196938382830E94F1014D
:1005E000E0917000F091710082819381CB97E9F4E2
:1005F000138302838481958101968C3091051CF4CC
:10060000958384830EC015830483868190E020E067
:100610008238920711F4D68304C08558904009F4BB
:10062000E6820E94F1010E94F101E0917000F091D8
:100630007100848195810C9784F0158304838681F1
:1006400090E020E08238920711F4D68304C08558E8
:10065000904009F4E6820E94F101C13409F49DCF73
:100660000E945200C82F0E94F101C73371F4E0913B
:100670007000F09171008081918101969183808357
:100680000E9422020E94F10150C0C43371F4E09133
:100690007000F09171008081918101979183808336
:1006A0000E9463020E94F10140C0C93371F4E091DD
:1006B0007000F0917100828193810196938382830F
:1006C0000E9422020E94F101CBCFC63371F4E09167
:1006D0007000F091710082819381019793838283EE
:1006E0000E9463020E94F101BBCFC33371F4E09119
:1006F0007000F091710084819581019695838483C7
:100700000E9422020E94F101ABCFC13371F4E0914B
:100710007000F091710084819581019795838483A5
:100720000E9463020E94F1019BCFC83309F098CF69
:100730002FCF883309F42CCF93CFAEE0B0E0E3EABB
:10074000F3E00C945E060D891E8986E08C831A8383
:1007500009838FEF9FE79E838D83AE01475E5F4FD6
:100760006F89788DCE0101960E94BF03EF81F885D5
:10077000E00FF11F10822E96E4E00C947A06ABE0B5
:10078000B0E0E5ECF3E00C9450066C017B018A01CB
:10079000FC0117821682838181FFCCC1CE010196B4
:1007A0003C01F6019381F70193FD859193FF8191BF
:1007B0007F01882309F4BAC1853239F493FD85910C
:1007C00093FF81917F01853229F4B60190E00E9468
:1007D000B605E7CF912C212C312CFFE1F315D8F091
:1007E0008B3279F038F4803279F08332A1F4232D02
:1007F00020611DC08D3261F0803369F4232D2160AA
:1008000016C0832D8260382EE32DE4603E2E2AC070
:10081000F32DF8601DC037FC2DC020ED280F2A30C5
:1008200040F08E32B9F436FC81C1232D2064322E83
:1008300019C036FE06C08AE0989E200D1124922E23
:1008400011C0EAE02E9E200D1124222EF32DF0621D
:100850003F2E08C08C3621F4832D8068382E02C0CC
:10086000883641F4F70193FD859193FF81917F01D3
:100870008111B3CF982F9F7D9554933028F40C5F4E
:100880001F4F9FE399830DC0833631F0833771F09A
:10089000833509F059C021C0F801808189830E5F3A
:1008A0001F4F88248394912C530113C02801F2E038
:1008B0004F0E511CF801A080B18036FE03C0692D97
:1008C00070E002C06FEF7FEFC5010E94AB054C01E5
:1008D0008201F32DFF773F2E16C0280122E0420E41
:1008E000511CF801A080B18036FE03C0692D70E074
:1008F00002C06FEF7FEFC5010E94A0054C01F32DF0
:10090000F0683F2E820133FC1BC0822D90E08816D8
:100910009906B0F4B60180E290E00E94B6052A94F0
:10092000F4CFF50137FC859137FE81915F01B60167
:1009300090E00E94B60521102A9421E0821A9108C5
:100940008114910471F7E8C0843611F0893641F5BD
:10095000F80137FE07C060817181828193810C5F4D
:100960001F4F08C060817181072E000C880B990B06
:100970000E5F1F4FF32DFF763F2E97FF09C0909516
:100980008095709561957F4F8F4F9F4FF0683F2EF8
:100990002AE030E0A3010E94F205882E861845C0A7
:1009A000853731F4232D2F7EB22E2AE030E025C08A
:1009B000932D997FB92E8F36C1F018F4883579F0D0
:1009C000B5C0803719F0883721F0B0C0E92FE06159
:1009D000BE2EB4FE0DC0FB2DF460BF2E09C034FE48
:1009E0000AC0292F2660B22E06C028E030E005C0DC
:1009F00020E130E002C020E132E0F801B7FE07C09C
:100A000060817181828193810C5F1F4F06C060817C
:100A1000718180E090E00E5F1F4FA3010E94F205FC
:100A2000882E8618FB2DFF773F2E36FE0DC0232D16
:100A30002E7FA22E891458F434FE0BC032FC09C05C
:100A4000832D8E7EA82E05C0B82CA32C03C0B82CF5
:100A500001C0B92CA4FE0FC0FE01E80DF11D80817C
:100A6000803321F49A2D997EA92E09C0A2FE06C0DA
:100A7000B394B39404C08A2D867809F0B394A3FC90
:100A800011C0A0FE06C0B21488F4280C922C9B184A
:100A90000EC0B21460F4B60180E290E00E94B60588
:100AA000B394F7CFB21418F42B1802C0982C212C51
:100AB000A4FE10C0B60180E390E00E94B605A2FE3D
:100AC00017C0A1FC03C088E790E002C088E590E071
:100AD000B6010CC08A2D867859F0A1FE02C08BE2C7
:100AE00001C080E2A7FC8DE2B60190E00E94B6054D
:100AF000891438F4B60180E390E00E94B6059A9418
:100B0000F7CF8A94F301E80DF11D8081B60190E0E2
:100B10000E94B6058110F5CF222009F442CEB6011D
:100B200080E290E00E94B6052A94F6CFF601868115
:100B3000978102C08FEF9FEF2B96E2E10C946C0639
:100B4000FC010590615070400110D8F78095909598
:100B50008E0F9F1F0895FC0161507040019001109D
:100B6000D8F7809590958E0F9F1F08950F931F9330
:100B7000CF93DF93FB01238121FD03C08FEF9FEF14
:100B80002CC022FF16C0468157812481358142172F
:100B9000530744F4A081B1819D012F5F3F4F318302
:100BA00020838C93268137812F5F3F4F37832683A5
:100BB00014C08B01EC01FB010084F185E02D099547
:100BC000892BE1F6D80116968D919C911797019685
:100BD00017969C938E931697CE01DF91CF911F911C
:100BE0000F910895FA01AA27283051F1203181F19F
:100BF000E8946F936E7F6E5F7F4F8F4F9F4FAF4F25
:100C0000B1E03ED0B4E03CD0670F781F891F9A1F37
:100C1000A11D680F791F8A1F911DA11D6A0F711DEB
:100C2000811D911DA11D20D009F468943F912AE0F7
:100C3000269F11243019305D3193DEF6CF010895DF
:100C4000462F4770405D4193B3E00FD0C9F7F6CF10
:100C5000462F4F70405D4A3318F0495D31FD4052D8
:100C6000419302D0A9F7EACFB4E0A695979587956E
:100C700077956795BA95C9F700976105710508954D
:100C80009B01AC010A2E06945795479537952795F9
:100C9000BA95C9F7620F731F841F951FA01D089591
:100CA0002F923F924F925F926F927F928F929F927C
:100CB000AF92BF92CF92DF92EF92FF920F931F936A
:100CC000CF93DF93CDB7DEB7CA1BDB0B0FB6F8941B
:100CD000DEBF0FBECDBF09942A88398848885F845B
:100CE0006E847D848C849B84AA84B984C884DF80CC
:100CF000EE80FD800C811B81AA81B981CE0FD11DB0
:100D00000FB6F894DEBF0FBECDBFED010895F89485
:020D1000FFCF13
:100D120000000100020003000400050006000700B5
:100D2200880025326400256325642E253035640051
:080D32003A00504D00414D0054
:00000001FF
